:1000000055C000006EC000006CC000006AC0000057
:1000100068C0000066C0000064C0000062C000004C
:1000200060C000005EC000005CC000005AC000005C
:1000300058C0000056C0000054C0000052C000006C
:1000400050C000004EC000004CC000004AC000007C
:1000500044C1000046C0000044C0000042C000008F
:1000600040C00000F0C100003CC000006BC10000B7
:1000700038C0000036C0000034C0000032C00000AC
:1000800030C000002EC000002CC000002AC00000BC
:1000900028C0000026C0000024C0000022C00000CC
:1000A00020C000001EC000001CC0000011241FBEA4
:1000B000CFEFDAE0DEBFCDBF11E0A0E0B1E0E4E7D2
:1000C000F7E002C005900D92A232B107D9F721E006
:1000D000A2E2B1E001C01D92A33BB207E1F707D055
:1000E00047C38ECFDCD018D108D078940895559AA4
:1000F000209AF8DF4DD089D0FFCF84B1866684B9CD
:1001000085B1866085B908958436910510F42A9AE0
:1001100001C02A986436710510F4299801C0299A03
:100120009C01992324F422273327281B390B4CEEFA
:100130004203C001439F900D11248153984F9C01AD
:100140002B503109253C3740E8F4AB01772324F4E8
:1001500044275527461B570B6CEE64039001659F9F
:10016000300D11242153384FA9014B505109453C02
:10017000574040F4909303018093020130930101B2
:1001800020930001089508950895089513C10895D6
:10019000EBE8F1E086EC90E0918380838FE090E0E3
:1001A000938382831782168215821482108683ECD1
:1001B00090E0928781878CE990E09487838783E140
:1001C00090E0908B878716861586118A84EC90E0E4
:1001D000938B828B8AE196E0958B848B85E290E00D
:1001E000918F808F178A168A128E85EC90E0948FFB
:1001F000838F88E09DE3968F858F88E390E092A3BC
:1002000081A310A2178E13A20895A0E0B0E0EAE047
:10021000F1E060C238D078940F2EFFEAEF2EF1E0C3
:10022000FF2EF02D04E910E0DD24D394CBE8D1E0DB
:10023000888581110FC0D8018D919C9111972E81D5
:100240003F8182179307D0F08D919C919D838C8381
:10025000D88614C0D8018D919C9111972C813D8135
:10026000821B930B2A813B818217930738F08D9173
:100270009C919D838C83E881F98109952996CE15FF
:10028000DF05B1F6D3CF1092950010929400109232
:10029000900085E08093910010929200089580ED87
:1002A00097E090938700809386008FEC97E090937F
:1002B00089008093880090938B0080938A00EFE6FA
:1002C000F0E080818160808380EF8093800081E115
:1002D000809381001092820008951F920F920FB6B2
:1002E0000F9211248F939F938091020190910301AB
:1002F00090938B0080938A0080910001909101017E
:1003000090938900809388005D989F918F910F90C2
:100310000FBE0F901F901895ECECF0E01182108248
:10032000A9ECB0E08C91886D8C931092CD0087E69B
:1003300080830895E8ECF0E080818823ECF78091D9
:10034000CE0008951F920F920FB60F9211242F9393
:100350003F934F935F936F937F938F939F93AF934D
:10036000BF93EF93FF93CF93DF931F92CDB7DEB789
:10037000BE016F5F7F4F85E291E0E9D0813021F4CB
:1003800089818093CE0002C0109223010F90DF91EB
:10039000CF91FF91EF91BF91AF919F918F917F91FD
:1003A0006F915F914F913F912F910F900FBE0F90E2
:1003B0001F901895A1E0B0E0EFEDF1E090C18091C1
:1003C000230181110DC0BE016F5F7F4F85E291E077
:1003D000BED0813029F48093230189818093CE009F
:1003E0002196E2E098C1CF93DF93FC016081662300
:1003F00041F0EC01219685E291E093D06991611181
:10040000FACFDF91CF910895A0E1B0E0E9E0F2E00A
:1004100064C18E010F5F1F4F27E04AE0B0D06981B1
:10042000662371F010E085E291E07BD01F5FE1E090
:10043000F0E0EC0FFD1FE10FF11D60816111F3CFC2
:100440006096E4E066C11F920F920FB60F921124DE
:100450002F933F934F935F936F937F938F939F93CC
:10046000AF93BF93EF93FF9380912201811121C03D
:1004700061DF90E0853691052CF49093B001809374
:10048000AF0105C09A959093B0018093AF0184E0CD
:1004900091E0A9DF6091AF017091B001072E000CCF
:1004A000880B990BB1DF809122018F5F809322012D
:1004B00026C040DF90E0853691052CF49093B20180
:1004C0008093B10105C09A959093B2018093B101D8
:1004D0008BE091E088DF6091B1017091B201072E4D
:1004E000000C880B990B90DF109222016091B101F2
:1004F0007091B2018091AF019091B00105DEFF9142
:10050000EF91BF91AF919F918F917F916F915F918B
:100510004F913F912F910F900FBE0F901F90189504
:1005200008959C0180918A0191E0980F4091890182
:10053000941759F0943609F490E0F901E80FF11D91
:10054000608390938A0181E0089580E008959C0182
:100550009091890181E0890F40918A01941769F097
:10056000843609F480E0F901E90FF11D9081FB0167
:1005700090838093890181E0089580E00895A4E04C
:10058000B0E0E4ECF2E09BC06B017C01242EF801AA
:10059000E20FF11D1082D701C6018827B7FD8395B0
:1005A0009927AA27BB278983222309F469C0822EB1
:1005B000912C442E512C612C712C6894332435F8E5
:1005C000B12CA22EC114D104E104F10451F4BB20DA
:1005D00051F0F401EB19F109E00FF11F319730826E
:1005E00030C0FF20ACF0F401EB19F109E00FF11F6E
:1005F0003197FC83EB83C701B601A301920143D07D
:10060000FB01EE5EFE4F8081EB81FC81808319C08F
:10061000C4018B199109800F911F01979C838B83D3
:1006200066277727CB016C197D098E099F09A301E5
:10063000920129D0FB01EE5EFE4F8081EB81FC81AF
:100640008083C701B601A30192011DD069017A011F
:10065000232B242B252B81F4F981F13069F48AE0D6
:1006600028120AC0B394F401EB19F109E00FF11F4D
:1006700031979DE290831982B394BA1408F4A2CF03
:100680002496E2E138C0052E97FB16F400940FD0B3
:1006900057FD05D04BD007FC02D046F408C050955A
:1006A0004095309521953F4F4F4F5F4F089590955E
:1006B0008095709561957F4F8F4F9F4F08952F9232
:1006C0003F924F925F926F927F928F929F92AF92E2
:1006D000BF92CF92DF92EF92FF920F931F93CF932F
:1006E000DF93CDB7DEB7CA1BDB0B0FB6F894DEBFC6
:1006F0000FBECDBF09942A88398848885F846E84EC
:100700007D848C849B84AA84B984C884DF80EE8035
:10071000FD800C811B81AA81B981CE0FD11D0FB63E
:10072000F894DEBF0FBECDBFED010895A1E21A2EF1
:10073000AA1BBB1BFD010DC0AA1FBB1FEE1FFF1F85
:10074000A217B307E407F50720F0A21BB30BE40BD5
:10075000F50B661F771F881F991F1A9469F760951C
:100760007095809590959B01AC01BD01CF010895D6
:04077000F894FFCF2B
:10077400CF07CF070A50574D313D000950574D322E
:100784003D00303132333435363738394142434411
:020794004546D8
:00000001FF
